{
  "abi": [
    {
      "anonymous": false,
      "inputs": [
        {
          "indexed": true,
          "internalType": "bytes32",
          "name": "id",
          "type": "bytes32"
        },
        {
          "indexed": true,
          "internalType": "uint64",
          "name": "fechaDelJuego",
          "type": "uint64"
        },
        {
          "indexed": false,
          "internalType": "string",
          "name": "casa",
          "type": "string"
        },
        {
          "indexed": false,
          "internalType": "string",
          "name": "visitante",
          "type": "string"
        }
      ],
      "name": "JuegoCreado",
      "type": "event"
    },
    {
      "inputs": [
        {
          "internalType": "uint256",
          "name": "cantidad",
          "type": "uint256"
        },
        {
          "internalType": "bytes32",
          "name": "juegoId",
          "type": "bytes32"
        }
      ],
      "name": "apostar",
      "outputs": [],
      "stateMutability": "nonpayable",
      "type": "function"
    },
    {
      "inputs": [
        {
          "internalType": "bytes32",
          "name": "",
          "type": "bytes32"
        },
        {
          "internalType": "bytes32",
          "name": "",
          "type": "bytes32"
        },
        {
          "internalType": "address",
          "name": "",
          "type": "address"
        }
      ],
      "name": "apuestas",
      "outputs": [
        {
          "internalType": "uint256",
          "name": "",
          "type": "uint256"
        }
      ],
      "stateMutability": "view",
      "type": "function"
    },
    {
      "inputs": [
        {
          "internalType": "uint64",
          "name": "fechaApuestasAbiertas",
          "type": "uint64"
        },
        {
          "internalType": "uint64",
          "name": "fechaApuestasCerradas",
          "type": "uint64"
        },
        {
          "internalType": "uint64",
          "name": "fechaDelJuego",
          "type": "uint64"
        },
        {
          "internalType": "string",
          "name": "casa",
          "type": "string"
        },
        {
          "internalType": "string",
          "name": "visitante",
          "type": "string"
        }
      ],
      "name": "crearJuego",
      "outputs": [],
      "stateMutability": "nonpayable",
      "type": "function"
    },
    {
      "inputs": [
        {
          "internalType": "bytes32",
          "name": "",
          "type": "bytes32"
        }
      ],
      "name": "juegos",
      "outputs": [
        {
          "internalType": "uint64",
          "name": "fechaApuestasAbiertas",
          "type": "uint64"
        },
        {
          "internalType": "uint64",
          "name": "fechaApuestasCerradas",
          "type": "uint64"
        },
        {
          "internalType": "uint64",
          "name": "fechaDelJuego",
          "type": "uint64"
        },
        {
          "internalType": "bytes32",
          "name": "ganador",
          "type": "bytes32"
        },
        {
          "components": [
            {
              "internalType": "bytes32",
              "name": "nombre",
              "type": "bytes32"
            },
            {
              "internalType": "uint256",
              "name": "totalApuestasEquipo",
              "type": "uint256"
            }
          ],
          "internalType": "struct LigaDeFutbol.Equipo",
          "name": "casa",
          "type": "tuple"
        },
        {
          "components": [
            {
              "internalType": "bytes32",
              "name": "nombre",
              "type": "bytes32"
            },
            {
              "internalType": "uint256",
              "name": "totalApuestasEquipo",
              "type": "uint256"
            }
          ],
          "internalType": "struct LigaDeFutbol.Equipo",
          "name": "visitante",
          "type": "tuple"
        },
        {
          "internalType": "enum LigaDeFutbol.Estatus",
          "name": "estado",
          "type": "uint8"
        }
      ],
      "stateMutability": "view",
      "type": "function"
    },
    {
      "inputs": [],
      "name": "monedaDeApuesta",
      "outputs": [
        {
          "internalType": "address",
          "name": "",
          "type": "address"
        }
      ],
      "stateMutability": "view",
      "type": "function"
    }
  ],
  "bytecode": {
    "object": "0x608060405234801561001057600080fd5b50610719806100206000396000f3fe608060405234801561001057600080fd5b50600436106100575760003560e01c80630190df851461005c5780633e221c7d146100715780635627bf15146100b557806358dec1b91461014f578063ffca61b21461017a575b600080fd5b61006f61006a366004610426565b61018c565b005b6100a261007f3660046104bc565b600260209081526000938452604080852082529284528284209052825290205481565b6040519081526020015b60405180910390f35b61013c6100c3366004610501565b600160208181526000928352604092839020805492810154845180860186526002830154815260038301548185015285518087019096526004830154865260058301549386019390935260069091015467ffffffffffffffff80851695600160401b8604821695600160801b9004909116939160ff1687565b6040516100ac9796959493929190610552565b600054610162906001600160a01b031681565b6040516001600160a01b0390911681526020016100ac565b61006f6101883660046105bd565b5050565b60208281015182820151604080518082018252838152600081860181905282518084018452848152808701829052835160e08101855267ffffffffffffffff8d811682528c811698820198909852968a1693870193909352606086018190526080860182905260a0860183905260c086018190529394929390929061021082610336565b60008181526001602081815260409283902086518154838901519589015167ffffffffffffffff908116600160801b0267ffffffffffffffff60801b19978216600160401b026fffffffffffffffffffffffffffffffff1990931691909316171794909416939093178355606086015183830155608086015180516002850155810151600384015560a08601518051600480860191909155910151600584015560c086015160068401805495965087959193909260ff199092169184908111156102dc576102dc61051a565b02179055509050508867ffffffffffffffff16817ff5471b5dadcbdf59de68977f30cf3360e5b835c516cd665c4381bfaa2997d6ad8a8a60405161032192919061062c565b60405180910390a35050505050505050505050565b600081604051602001610349919061065a565b604051602081830303815290604052805190602001209050919050565b803567ffffffffffffffff8116811461037e57600080fd5b919050565b634e487b7160e01b600052604160045260246000fd5b600082601f8301126103aa57600080fd5b813567ffffffffffffffff808211156103c5576103c5610383565b604051601f8301601f19908116603f011681019082821181831017156103ed576103ed610383565b8160405283815286602085880101111561040657600080fd5b836020870160208301376000602085830101528094505050505092915050565b600080600080600060a0868803121561043e57600080fd5b61044786610366565b945061045560208701610366565b935061046360408701610366565b9250606086013567ffffffffffffffff8082111561048057600080fd5b61048c89838a01610399565b935060808801359150808211156104a257600080fd5b506104af88828901610399565b9150509295509295909350565b6000806000606084860312156104d157600080fd5b833592506020840135915060408401356001600160a01b03811681146104f657600080fd5b809150509250925092565b60006020828403121561051357600080fd5b5035919050565b634e487b7160e01b600052602160045260246000fd5b6005811061054e57634e487b7160e01b600052602160045260246000fd5b9052565b67ffffffffffffffff8881168252878116602083015286166040820152606081018590526101208101610592608083018680518252602090810151910152565b835160c0830152602084015160e08301526105b1610100830184610530565b98975050505050505050565b600080604083850312156105d057600080fd5b50508035926020909101359150565b6000815180845260005b81811015610605576020818501810151868301820152016105e9565b81811115610617576000602083870101525b50601f01601f19169290920160200192915050565b60408152600061063f60408301856105df565b828103602084015261065181856105df565b95945050505050565b60006101208201905067ffffffffffffffff808451168352806020850151166020840152806040850151166040840152506060830151606083015260808301516106b1608084018280518252602090810151910152565b5060a0830151805160c0840152602081015160e08401525060c08301516106dc610100840182610530565b509291505056fea26469706673582212209ed0e02a427c018fc64c45d64b9b69dcf24699e4103398355ff724a6cb2a430764736f6c634300080f0033",
    "linkReferences": {}
  },
  "methodIdentifiers": {
    "apostar(uint256,bytes32)": "ffca61b2",
    "apuestas(bytes32,bytes32,address)": "3e221c7d",
    "crearJuego(uint64,uint64,uint64,string,string)": "0190df85",
    "juegos(bytes32)": "5627bf15",
    "monedaDeApuesta()": "58dec1b9"
  },
  "id": 0
}